{
  "contractName": "GuessAndWin",
  "abi": [
    {
      "inputs": [
        {
          "internalType": "string",
          "name": "_hint",
          "type": "string"
        },
        {
          "internalType": "string",
          "name": "_word",
          "type": "string"
        }
      ],
      "stateMutability": "nonpayable",
      "type": "constructor"
    },
    {
      "anonymous": false,
      "inputs": [
        {
          "indexed": true,
          "internalType": "address",
          "name": "previousOwner",
          "type": "address"
        },
        {
          "indexed": true,
          "internalType": "address",
          "name": "newOwner",
          "type": "address"
        }
      ],
      "name": "OwnershipTransferred",
      "type": "event"
    },
    {
      "inputs": [],
      "name": "hint",
      "outputs": [
        {
          "internalType": "string",
          "name": "",
          "type": "string"
        }
      ],
      "stateMutability": "view",
      "type": "function",
      "constant": true
    },
    {
      "inputs": [],
      "name": "owner",
      "outputs": [
        {
          "internalType": "address",
          "name": "",
          "type": "address"
        }
      ],
      "stateMutability": "view",
      "type": "function",
      "constant": true
    },
    {
      "inputs": [],
      "name": "renounceOwnership",
      "outputs": [],
      "stateMutability": "nonpayable",
      "type": "function"
    },
    {
      "inputs": [
        {
          "internalType": "address",
          "name": "newOwner",
          "type": "address"
        }
      ],
      "name": "transferOwnership",
      "outputs": [],
      "stateMutability": "nonpayable",
      "type": "function"
    },
    {
      "inputs": [],
      "name": "winner",
      "outputs": [
        {
          "internalType": "address",
          "name": "",
          "type": "address"
        }
      ],
      "stateMutability": "view",
      "type": "function",
      "constant": true
    },
    {
      "stateMutability": "payable",
      "type": "receive",
      "payable": true
    },
    {
      "inputs": [
        {
          "internalType": "string",
          "name": "tmpString",
          "type": "string"
        }
      ],
      "name": "proposeWord",
      "outputs": [
        {
          "internalType": "bool",
          "name": "",
          "type": "bool"
        }
      ],
      "stateMutability": "payable",
      "type": "function",
      "payable": true
    },
    {
      "inputs": [
        {
          "internalType": "string",
          "name": "str",
          "type": "string"
        },
        {
          "internalType": "string",
          "name": "hintStr",
          "type": "string"
        }
      ],
      "name": "changeWord",
      "outputs": [],
      "stateMutability": "nonpayable",
      "type": "function"
    },
    {
      "inputs": [],
      "name": "hasSomeoneWin",
      "outputs": [
        {
          "internalType": "bool",
          "name": "",
          "type": "bool"
        }
      ],
      "stateMutability": "view",
      "type": "function",
      "constant": true
    },
    {
      "inputs": [],
      "name": "seePrize",
      "outputs": [
        {
          "internalType": "uint256",
          "name": "",
          "type": "uint256"
        }
      ],
      "stateMutability": "view",
      "type": "function",
      "constant": true
    }
  ],
  "bytecode": "0x60806040523480156200001157600080fd5b5060405162001a2338038062001a2383398181016040528101906200003791906200043f565b620000576200004b6200012660201b60201c565b6200012e60201b60201c565b806040516020016200006a919062000511565b604051602081830303815290604052805190602001208260405160200162000093919062000511565b6040516020818303038152906040528051906020012003620000ec576040517f08c379a0000000000000000000000000000000000000000000000000000000008152600401620000e390620005b1565b60405180910390fd5b816001908051906020019062000104929190620001f2565b5080600290805190602001906200011d929190620001f2565b50505062000637565b600033905090565b60008060009054906101000a900473ffffffffffffffffffffffffffffffffffffffff169050816000806101000a81548173ffffffffffffffffffffffffffffffffffffffff021916908373ffffffffffffffffffffffffffffffffffffffff1602179055508173ffffffffffffffffffffffffffffffffffffffff168173ffffffffffffffffffffffffffffffffffffffff167f8be0079c531659141344cd1fd0a4f28419497f9722a3daafe3b4186f6b6457e060405160405180910390a35050565b828054620002009062000602565b90600052602060002090601f01602090048101928262000224576000855562000270565b82601f106200023f57805160ff191683800117855562000270565b8280016001018555821562000270579182015b828111156200026f57825182559160200191906001019062000252565b5b5090506200027f919062000283565b5090565b5b808211156200029e57600081600090555060010162000284565b5090565b6000604051905090565b600080fd5b600080fd5b600080fd5b600080fd5b6000601f19601f8301169050919050565b7f4e487b7100000000000000000000000000000000000000000000000000000000600052604160045260246000fd5b6200030b82620002c0565b810181811067ffffffffffffffff821117156200032d576200032c620002d1565b5b80604052505050565b600062000342620002a2565b905062000350828262000300565b919050565b600067ffffffffffffffff821115620003735762000372620002d1565b5b6200037e82620002c0565b9050602081019050919050565b60005b83811015620003ab5780820151818401526020810190506200038e565b83811115620003bb576000848401525b50505050565b6000620003d8620003d28462000355565b62000336565b905082815260208101848484011115620003f757620003f6620002bb565b5b620004048482856200038b565b509392505050565b600082601f830112620004245762000423620002b6565b5b815162000436848260208601620003c1565b91505092915050565b60008060408385031215620004595762000458620002ac565b5b600083015167ffffffffffffffff8111156200047a5762000479620002b1565b5b62000488858286016200040c565b925050602083015167ffffffffffffffff811115620004ac57620004ab620002b1565b5b620004ba858286016200040c565b9150509250929050565b600081519050919050565b600081905092915050565b6000620004e782620004c4565b620004f38185620004cf565b9350620005058185602086016200038b565b80840191505092915050565b60006200051f8284620004da565b915081905092915050565b600082825260208201905092915050565b7f776f726420616e642068696e74206861766520746f206265206469666665726560008201527f6e74000000000000000000000000000000000000000000000000000000000000602082015250565b6000620005996022836200052a565b9150620005a6826200053b565b604082019050919050565b60006020820190508181036000830152620005cc816200058a565b9050919050565b7f4e487b7100000000000000000000000000000000000000000000000000000000600052602260045260246000fd5b600060028204905060018216806200061b57607f821691505b602082108103620006315762000630620005d3565b5b50919050565b6113dc80620006476000396000f3fe60806040526004361061008a5760003560e01c8063c54ba37d11610059578063c54ba37d14610133578063cafc46081461015e578063dfbf53ae14610187578063f2fde38b146101b2578063fbf552db146101db57610091565b8063199500ec14610096578063715018a6146100c15780638da5cb5b146100d8578063bc3ba76c1461010357610091565b3661009157005b600080fd5b3480156100a257600080fd5b506100ab610206565b6040516100b89190610a9f565b60405180910390f35b3480156100cd57600080fd5b506100d661020e565b005b3480156100e457600080fd5b506100ed610296565b6040516100fa9190610afb565b60405180910390f35b61011d60048036038101906101189190610c70565b6102bf565b60405161012a9190610cd4565b60405180910390f35b34801561013f57600080fd5b50610148610576565b6040516101559190610cd4565b60405180910390f35b34801561016a57600080fd5b5061018560048036038101906101809190610cef565b6105de565b005b34801561019357600080fd5b5061019c610694565b6040516101a99190610afb565b60405180910390f35b3480156101be57600080fd5b506101d960048036038101906101d49190610d93565b6106ba565b005b3480156101e757600080fd5b506101f06107b1565b6040516101fd9190610e48565b60405180910390f35b600047905090565b61021661083f565b73ffffffffffffffffffffffffffffffffffffffff16610234610296565b73ffffffffffffffffffffffffffffffffffffffff161461028a576040517f08c379a000000000000000000000000000000000000000000000000000000000815260040161028190610eb6565b60405180910390fd5b6102946000610847565b565b60008060009054906101000a900473ffffffffffffffffffffffffffffffffffffffff16905090565b60006001600360003373ffffffffffffffffffffffffffffffffffffffff1673ffffffffffffffffffffffffffffffffffffffff1681526020019081526020016000205410610343576040517f08c379a000000000000000000000000000000000000000000000000000000000815260040161033a90610f48565b60405180910390fd5b3a670de0b6b3a76400006103579190610f97565b341015610399576040517f08c379a000000000000000000000000000000000000000000000000000000000815260040161039090611017565b60405180910390fd5b6001600360003373ffffffffffffffffffffffffffffffffffffffff1673ffffffffffffffffffffffffffffffffffffffff16815260200190815260200160002060008282546103e99190611037565b925050819055506004339080600181540180825580915050600190039060005260206000200160009091909190916101000a81548173ffffffffffffffffffffffffffffffffffffffff021916908373ffffffffffffffffffffffffffffffffffffffff1602179055506002604051602001610465919061118c565b604051602081830303815290604052805190602001208260405160200161048c91906111d4565b604051602081830303815290604052805190602001200361056c5760003373ffffffffffffffffffffffffffffffffffffffff166104c8610206565b6040516104d49061121c565b60006040518083038185875af1925050503d8060008114610511576040519150601f19603f3d011682016040523d82523d6000602084013e610516565b606091505b505090508061055a576040517f08c379a00000000000000000000000000000000000000000000000000000000081526004016105519061127d565b60405180910390fd5b61056261090b565b6001915050610571565b600090505b919050565b60008073ffffffffffffffffffffffffffffffffffffffff16600560009054906101000a900473ffffffffffffffffffffffffffffffffffffffff1673ffffffffffffffffffffffffffffffffffffffff16036105d657600090506105db565b600190505b90565b6105e661083f565b73ffffffffffffffffffffffffffffffffffffffff16610604610296565b73ffffffffffffffffffffffffffffffffffffffff161461065a576040517f08c379a000000000000000000000000000000000000000000000000000000000815260040161065190610eb6565b60405180910390fd5b80600190805190602001906106709291906109c2565b5081600290805190602001906106879291906109c2565b5061069061090b565b5050565b600560009054906101000a900473ffffffffffffffffffffffffffffffffffffffff1681565b6106c261083f565b73ffffffffffffffffffffffffffffffffffffffff166106e0610296565b73ffffffffffffffffffffffffffffffffffffffff1614610736576040517f08c379a000000000000000000000000000000000000000000000000000000000815260040161072d90610eb6565b60405180910390fd5b600073ffffffffffffffffffffffffffffffffffffffff168173ffffffffffffffffffffffffffffffffffffffff16036107a5576040517f08c379a000000000000000000000000000000000000000000000000000000000815260040161079c9061130f565b60405180910390fd5b6107ae81610847565b50565b600180546107be906110bc565b80601f01602080910402602001604051908101604052809291908181526020018280546107ea906110bc565b80156108375780601f1061080c57610100808354040283529160200191610837565b820191906000526020600020905b81548152906001019060200180831161081a57829003601f168201915b505050505081565b600033905090565b60008060009054906101000a900473ffffffffffffffffffffffffffffffffffffffff169050816000806101000a81548173ffffffffffffffffffffffffffffffffffffffff021916908373ffffffffffffffffffffffffffffffffffffffff1602179055508173ffffffffffffffffffffffffffffffffffffffff168173ffffffffffffffffffffffffffffffffffffffff167f8be0079c531659141344cd1fd0a4f28419497f9722a3daafe3b4186f6b6457e060405160405180910390a35050565b60005b6004805490508110156109b157600060036000600484815481106109355761093461132f565b5b9060005260206000200160009054906101000a900473ffffffffffffffffffffffffffffffffffffffff1673ffffffffffffffffffffffffffffffffffffffff1673ffffffffffffffffffffffffffffffffffffffff1681526020019081526020016000208190555080806109a99061135e565b91505061090e565b50600460006109c09190610a48565b565b8280546109ce906110bc565b90600052602060002090601f0160209004810192826109f05760008555610a37565b82601f10610a0957805160ff1916838001178555610a37565b82800160010185558215610a37579182015b82811115610a36578251825591602001919060010190610a1b565b5b509050610a449190610a69565b5090565b5080546000825590600052602060002090810190610a669190610a69565b50565b5b80821115610a82576000816000905550600101610a6a565b5090565b6000819050919050565b610a9981610a86565b82525050565b6000602082019050610ab46000830184610a90565b92915050565b600073ffffffffffffffffffffffffffffffffffffffff82169050919050565b6000610ae582610aba565b9050919050565b610af581610ada565b82525050565b6000602082019050610b106000830184610aec565b92915050565b6000604051905090565b600080fd5b600080fd5b600080fd5b600080fd5b6000601f19601f8301169050919050565b7f4e487b7100000000000000000000000000000000000000000000000000000000600052604160045260246000fd5b610b7d82610b34565b810181811067ffffffffffffffff82111715610b9c57610b9b610b45565b5b80604052505050565b6000610baf610b16565b9050610bbb8282610b74565b919050565b600067ffffffffffffffff821115610bdb57610bda610b45565b5b610be482610b34565b9050602081019050919050565b82818337600083830152505050565b6000610c13610c0e84610bc0565b610ba5565b905082815260208101848484011115610c2f57610c2e610b2f565b5b610c3a848285610bf1565b509392505050565b600082601f830112610c5757610c56610b2a565b5b8135610c67848260208601610c00565b91505092915050565b600060208284031215610c8657610c85610b20565b5b600082013567ffffffffffffffff811115610ca457610ca3610b25565b5b610cb084828501610c42565b91505092915050565b60008115159050919050565b610cce81610cb9565b82525050565b6000602082019050610ce96000830184610cc5565b92915050565b60008060408385031215610d0657610d05610b20565b5b600083013567ffffffffffffffff811115610d2457610d23610b25565b5b610d3085828601610c42565b925050602083013567ffffffffffffffff811115610d5157610d50610b25565b5b610d5d85828601610c42565b9150509250929050565b610d7081610ada565b8114610d7b57600080fd5b50565b600081359050610d8d81610d67565b92915050565b600060208284031215610da957610da8610b20565b5b6000610db784828501610d7e565b91505092915050565b600081519050919050565b600082825260208201905092915050565b60005b83811015610dfa578082015181840152602081019050610ddf565b83811115610e09576000848401525b50505050565b6000610e1a82610dc0565b610e248185610dcb565b9350610e34818560208601610ddc565b610e3d81610b34565b840191505092915050565b60006020820190508181036000830152610e628184610e0f565b905092915050565b7f4f776e61626c653a2063616c6c6572206973206e6f7420746865206f776e6572600082015250565b6000610ea0602083610dcb565b9150610eab82610e6a565b602082019050919050565b60006020820190508181036000830152610ecf81610e93565b9050919050565b7f536f7272792c20796f7520616c726561647920676f7420796f7572206368616e60008201527f6365000000000000000000000000000000000000000000000000000000000000602082015250565b6000610f32602283610dcb565b9150610f3d82610ed6565b604082019050919050565b60006020820190508181036000830152610f6181610f25565b9050919050565b7f4e487b7100000000000000000000000000000000000000000000000000000000600052601160045260246000fd5b6000610fa282610a86565b9150610fad83610a86565b925082821015610fc057610fbf610f68565b5b828203905092915050565b7f50617920312065746820746f2074727900000000000000000000000000000000600082015250565b6000611001601083610dcb565b915061100c82610fcb565b602082019050919050565b6000602082019050818103600083015261103081610ff4565b9050919050565b600061104282610a86565b915061104d83610a86565b9250827fffffffffffffffffffffffffffffffffffffffffffffffffffffffffffffffff0382111561108257611081610f68565b5b828201905092915050565b7f4e487b7100000000000000000000000000000000000000000000000000000000600052602260045260246000fd5b600060028204905060018216806110d457607f821691505b6020821081036110e7576110e661108d565b5b50919050565b600081905092915050565b60008190508160005260206000209050919050565b6000815461111a816110bc565b61112481866110ed565b9450600182166000811461113f576001811461115057611183565b60ff19831686528186019350611183565b611159856110f8565b60005b8381101561117b5781548189015260018201915060208101905061115c565b838801955050505b50505092915050565b6000611198828461110d565b915081905092915050565b60006111ae82610dc0565b6111b881856110ed565b93506111c8818560208601610ddc565b80840191505092915050565b60006111e082846111a3565b915081905092915050565b600081905092915050565b50565b60006112066000836111eb565b9150611211826111f6565b600082019050919050565b6000611227826111f9565b9150819050919050565b7f4661696c656420746f2073656e64204574686572000000000000000000000000600082015250565b6000611267601483610dcb565b915061127282611231565b602082019050919050565b600060208201905081810360008301526112968161125a565b9050919050565b7f4f776e61626c653a206e6577206f776e657220697320746865207a65726f206160008201527f6464726573730000000000000000000000000000000000000000000000000000602082015250565b60006112f9602683610dcb565b91506113048261129d565b604082019050919050565b60006020820190508181036000830152611328816112ec565b9050919050565b7f4e487b7100000000000000000000000000000000000000000000000000000000600052603260045260246000fd5b600061136982610a86565b91507fffffffffffffffffffffffffffffffffffffffffffffffffffffffffffffffff820361139b5761139a610f68565b5b60018201905091905056fea26469706673582212207c23f325ea9d627105b7bfb57b2bdfdb35b828456ac48a6699f767c6a6f3d7a364736f6c634300080d0033",
  "immutableReferences": {},
  "source": "// SPDX-License-Identifier: GPL-3.0\npragma solidity 0.8.13;\n\nimport '@openzeppelin/contracts/access/Ownable.sol';\n\ncontract GuessAndWin is Ownable{\n    string public hint; \n    string private word; //word to find\n    mapping(address => uint) HasTried; // HasTried[0] => never play, HasTried[1] tried once\n    address[] private log;\n    address public winner;\n    constructor(string memory _hint, string memory _word) {\n        require(keccak256(abi.encodePacked(_hint)) != keccak256(abi.encodePacked(_word)), \"word and hint have to be different\");\n        hint = _hint;\n        word = _word;\n    }\n    /*\n        verify if the player has already tried once\n        write in the mapping that this address tried\n        then compare the try and the word\n        if it match, send all contract's eth to msg.sender\n        return true\n        else return false\n    */\n    function proposeWord(string memory tmpString)external payable returns(bool){\n        require(HasTried[msg.sender] < 1, \"Sorry, you already got your chance\");\n        require(msg.value >= (1 ether - tx.gasprice), \"Pay 1 eth to try\");\n        HasTried[msg.sender] += 1;\n        log.push(msg.sender);\n        if(keccak256(abi.encodePacked(tmpString)) == keccak256(abi.encodePacked(word))){\n            (bool sent, ) = msg.sender.call{value: seePrize()}(\"\");\n            require(sent, \"Failed to send Ether\");\n            restart();\n            return true;\n        }\n            return false;\n    }\n\n    /*\n        Owner can change the word, but restart the mapping to be fair\n    */\n    function changeWord(string memory str, string memory hintStr)external onlyOwner{\n        hint = hintStr;\n        word = str;\n        restart();\n    }\n    /*\n        restart the mapping;\n    */\n    function restart() internal {\n        for(uint i; i < log.length; i++){\n            HasTried[log[i]] = 0;\n        }\n        delete log;\n    }\n\n    /*\n        winner = 0x00... means nobody find the word\n    */\n    function hasSomeoneWin()external view returns(bool){\n        if(winner == 0x0000000000000000000000000000000000000000){\n            return false;\n        }\n            return true;\n    }\n\n    \n    function seePrize()public view returns(uint){\n        return address(this).balance;\n    }\n\n    receive()external payable{\n\n    }\n\n}\n",
  "sourcePath": "/home/amsteradams/developpement/Solidity/test-GuessAndWin/contracts/GuessAndWin.sol",
  "compiler": {
    "name": "solc",
    "version": "0.8.13+commit.abaa5c0e.Emscripten.clang"
  },
  "schemaVersion": "3.4.6",
  "updatedAt": "2022-03-31T15:21:35.304Z",
  "networkType": "ethereum",
  "devdoc": {
    "kind": "dev",
    "methods": {
      "owner()": {
        "details": "Returns the address of the current owner."
      },
      "renounceOwnership()": {
        "details": "Leaves the contract without owner. It will not be possible to call `onlyOwner` functions anymore. Can only be called by the current owner. NOTE: Renouncing ownership will leave the contract without an owner, thereby removing any functionality that is only available to the owner."
      },
      "transferOwnership(address)": {
        "details": "Transfers ownership of the contract to a new account (`newOwner`). Can only be called by the current owner."
      }
    },
    "version": 1
  },
  "userdoc": {
    "kind": "user",
    "methods": {},
    "version": 1
  }
}